{
  "_format": "hh-sol-artifact-1",
  "contractName": "NftMarketplace",
  "sourceName": "contracts/NftMarketplace.sol",
  "abi": [
    {
      "inputs": [
        {
          "internalType": "address",
          "name": "_owner",
          "type": "address"
        }
      ],
      "stateMutability": "nonpayable",
      "type": "constructor"
    },
    {
      "inputs": [],
      "name": "NftMarketplace__AddressZeroNotAllowed",
      "type": "error"
    },
    {
      "inputs": [],
      "name": "NftMarketplace__AlreadyListed",
      "type": "error"
    },
    {
      "inputs": [],
      "name": "NftMarketplace__NotEnoughFunds",
      "type": "error"
    },
    {
      "inputs": [],
      "name": "NftMarketplace__NotListed",
      "type": "error"
    },
    {
      "inputs": [],
      "name": "NftMarketplace__NotOwner",
      "type": "error"
    },
    {
      "inputs": [],
      "name": "NftMarketplace__TransferFailed",
      "type": "error"
    },
    {
      "inputs": [
        {
          "internalType": "address",
          "name": "owner",
          "type": "address"
        }
      ],
      "name": "OwnableInvalidOwner",
      "type": "error"
    },
    {
      "inputs": [
        {
          "internalType": "address",
          "name": "account",
          "type": "address"
        }
      ],
      "name": "OwnableUnauthorizedAccount",
      "type": "error"
    },
    {
      "anonymous": false,
      "inputs": [
        {
          "indexed": true,
          "internalType": "address",
          "name": "nft",
          "type": "address"
        },
        {
          "indexed": true,
          "internalType": "uint256",
          "name": "mintId",
          "type": "uint256"
        }
      ],
      "name": "NftCreate",
      "type": "event"
    },
    {
      "anonymous": false,
      "inputs": [
        {
          "indexed": true,
          "internalType": "address",
          "name": "nft",
          "type": "address"
        },
        {
          "indexed": true,
          "internalType": "uint256",
          "name": "tokenId",
          "type": "uint256"
        },
        {
          "indexed": true,
          "internalType": "address",
          "name": "owner",
          "type": "address"
        }
      ],
      "name": "NftDelisting",
      "type": "event"
    },
    {
      "anonymous": false,
      "inputs": [
        {
          "indexed": true,
          "internalType": "address",
          "name": "nft",
          "type": "address"
        },
        {
          "indexed": true,
          "internalType": "uint256",
          "name": "tokenId",
          "type": "uint256"
        },
        {
          "indexed": true,
          "internalType": "address",
          "name": "owner",
          "type": "address"
        }
      ],
      "name": "NftListing",
      "type": "event"
    },
    {
      "anonymous": false,
      "inputs": [
        {
          "indexed": true,
          "internalType": "address",
          "name": "nft",
          "type": "address"
        },
        {
          "indexed": true,
          "internalType": "uint256",
          "name": "tokenId",
          "type": "uint256"
        },
        {
          "indexed": true,
          "internalType": "address",
          "name": "minter",
          "type": "address"
        }
      ],
      "name": "NftMint",
      "type": "event"
    },
    {
      "anonymous": false,
      "inputs": [
        {
          "indexed": true,
          "internalType": "address",
          "name": "nft",
          "type": "address"
        },
        {
          "indexed": true,
          "internalType": "uint256",
          "name": "tokenId",
          "type": "uint256"
        },
        {
          "indexed": true,
          "internalType": "address",
          "name": "owner",
          "type": "address"
        },
        {
          "indexed": false,
          "internalType": "address",
          "name": "buyer",
          "type": "address"
        },
        {
          "indexed": false,
          "internalType": "uint256",
          "name": "price",
          "type": "uint256"
        }
      ],
      "name": "NftPurchase",
      "type": "event"
    },
    {
      "anonymous": false,
      "inputs": [
        {
          "indexed": true,
          "internalType": "address",
          "name": "previousOwner",
          "type": "address"
        },
        {
          "indexed": true,
          "internalType": "address",
          "name": "newOwner",
          "type": "address"
        }
      ],
      "name": "OwnershipTransferred",
      "type": "event"
    },
    {
      "inputs": [
        {
          "internalType": "address",
          "name": "_nft",
          "type": "address"
        },
        {
          "internalType": "uint256",
          "name": "_tokenId",
          "type": "uint256"
        }
      ],
      "name": "buyNft",
      "outputs": [],
      "stateMutability": "payable",
      "type": "function"
    },
    {
      "inputs": [
        {
          "internalType": "address",
          "name": "_owner",
          "type": "address"
        },
        {
          "internalType": "string",
          "name": "_name",
          "type": "string"
        },
        {
          "internalType": "string",
          "name": "_symbol",
          "type": "string"
        },
        {
          "internalType": "string",
          "name": "_baseTokenURI",
          "type": "string"
        },
        {
          "internalType": "bool",
          "name": "_isfixedSupply",
          "type": "bool"
        },
        {
          "internalType": "uint256",
          "name": "_maxSupply",
          "type": "uint256"
        },
        {
          "internalType": "uint256",
          "name": "_price",
          "type": "uint256"
        }
      ],
      "name": "createNft",
      "outputs": [
        {
          "internalType": "address",
          "name": "nftAddress",
          "type": "address"
        },
        {
          "internalType": "uint256",
          "name": "mintId",
          "type": "uint256"
        }
      ],
      "stateMutability": "nonpayable",
      "type": "function"
    },
    {
      "inputs": [
        {
          "internalType": "address",
          "name": "_nft",
          "type": "address"
        },
        {
          "internalType": "uint256",
          "name": "_tokenId",
          "type": "uint256"
        }
      ],
      "name": "delistNft",
      "outputs": [],
      "stateMutability": "nonpayable",
      "type": "function"
    },
    {
      "inputs": [
        {
          "internalType": "address",
          "name": "_nft",
          "type": "address"
        },
        {
          "internalType": "uint256",
          "name": "_tokenId",
          "type": "uint256"
        }
      ],
      "name": "getListing",
      "outputs": [
        {
          "components": [
            {
              "internalType": "address",
              "name": "seller",
              "type": "address"
            },
            {
              "internalType": "uint256",
              "name": "tokenId",
              "type": "uint256"
            },
            {
              "internalType": "uint256",
              "name": "price",
              "type": "uint256"
            },
            {
              "internalType": "bool",
              "name": "isListed",
              "type": "bool"
            }
          ],
          "internalType": "struct NftMarketplace.Listing",
          "name": "",
          "type": "tuple"
        }
      ],
      "stateMutability": "view",
      "type": "function"
    },
    {
      "inputs": [
        {
          "internalType": "uint256",
          "name": "_mintId",
          "type": "uint256"
        }
      ],
      "name": "getMint",
      "outputs": [
        {
          "internalType": "address",
          "name": "",
          "type": "address"
        }
      ],
      "stateMutability": "view",
      "type": "function"
    },
    {
      "inputs": [
        {
          "internalType": "address",
          "name": "_nft",
          "type": "address"
        },
        {
          "internalType": "uint256",
          "name": "_tokenId",
          "type": "uint256"
        },
        {
          "internalType": "uint256",
          "name": "_price",
          "type": "uint256"
        }
      ],
      "name": "listToken",
      "outputs": [],
      "stateMutability": "nonpayable",
      "type": "function"
    },
    {
      "inputs": [
        {
          "internalType": "uint256",
          "name": "_mintId",
          "type": "uint256"
        }
      ],
      "name": "mintNft",
      "outputs": [],
      "stateMutability": "payable",
      "type": "function"
    },
    {
      "inputs": [],
      "name": "owner",
      "outputs": [
        {
          "internalType": "address",
          "name": "",
          "type": "address"
        }
      ],
      "stateMutability": "view",
      "type": "function"
    },
    {
      "inputs": [],
      "name": "renounceOwnership",
      "outputs": [],
      "stateMutability": "nonpayable",
      "type": "function"
    },
    {
      "inputs": [
        {
          "internalType": "address",
          "name": "newOwner",
          "type": "address"
        }
      ],
      "name": "transferOwnership",
      "outputs": [],
      "stateMutability": "nonpayable",
      "type": "function"
    }
  ],
  "bytecode": "0x60806040523480156200001157600080fd5b506040516200514f3803806200514f8339818101604052810190620000379190620001f4565b80600073ffffffffffffffffffffffffffffffffffffffff168173ffffffffffffffffffffffffffffffffffffffff1603620000ad5760006040517f1e4fbdf7000000000000000000000000000000000000000000000000000000008152600401620000a4919062000237565b60405180910390fd5b620000be81620000c660201b60201c565b505062000254565b60008060009054906101000a900473ffffffffffffffffffffffffffffffffffffffff169050816000806101000a81548173ffffffffffffffffffffffffffffffffffffffff021916908373ffffffffffffffffffffffffffffffffffffffff1602179055508173ffffffffffffffffffffffffffffffffffffffff168173ffffffffffffffffffffffffffffffffffffffff167f8be0079c531659141344cd1fd0a4f28419497f9722a3daafe3b4186f6b6457e060405160405180910390a35050565b600080fd5b600073ffffffffffffffffffffffffffffffffffffffff82169050919050565b6000620001bc826200018f565b9050919050565b620001ce81620001af565b8114620001da57600080fd5b50565b600081519050620001ee81620001c3565b92915050565b6000602082840312156200020d576200020c6200018a565b5b60006200021d84828501620001dd565b91505092915050565b6200023181620001af565b82525050565b60006020820190506200024e600083018462000226565b92915050565b614eeb80620002646000396000f3fe6080604052600436106200009e5760003560e01c806388700d1c116200006157806388700d1c14620001595780638da5cb5b146200019d578063c6a5220914620001cd578063da9fc9261462000212578063f2fde38b1462000256576200009e565b80630d730acc14620000a35780634ddf4f8f14620000c3578063715018a614620000e35780637c97888614620000fd5780637e07590d146200012b575b600080fd5b620000c16004803603810190620000bb91906200108b565b62000284565b005b620000e16004803603810190620000db919062001122565b6200045f565b005b348015620000f057600080fd5b50620000fb62000740565b005b3480156200010a57600080fd5b5062000129600480360381019062000123919062001122565b62000758565b005b3480156200013857600080fd5b5062000157600480360381019062000151919062001169565b62000934565b005b3480156200016657600080fd5b506200018560048036038101906200017f919062001122565b62000b25565b60405162000194919062001261565b60405180910390f35b348015620001aa57600080fd5b50620001b562000c17565b604051620001c491906200128f565b60405180910390f35b348015620001da57600080fd5b50620001f96004803603810190620001f391906200143f565b62000c40565b6040516200020992919062001560565b60405180910390f35b3480156200021f57600080fd5b506200023e60048036038101906200023891906200108b565b62000d5e565b6040516200024d91906200128f565b60405180910390f35b3480156200026357600080fd5b506200028260048036038101906200027c91906200158d565b62000d9b565b005b6200028f3362000e28565b60006002600083815260200190815260200160002060009054906101000a900473ffffffffffffffffffffffffffffffffffffffff16905060008173ffffffffffffffffffffffffffffffffffffffff1663a7f93ebd6040518163ffffffff1660e01b8152600401602060405180830381865afa15801562000315573d6000803e3d6000fd5b505050506040513d601f19601f820116820180604052508101906200033b9190620015d6565b90508034101562000378576040517f61d1288000000000000000000000000000000000000000000000000000000000815260040160405180910390fd5b60008273ffffffffffffffffffffffffffffffffffffffff166340d097c383336040518363ffffffff1660e01b8152600401620003b691906200128f565b60206040518083038185885af1158015620003d5573d6000803e3d6000fd5b50505050506040513d601f19601f82011682018060405250810190620003fc9190620015d6565b90503373ffffffffffffffffffffffffffffffffffffffff16818473ffffffffffffffffffffffffffffffffffffffff167f481206f8a094af663b3f16f715959ec970d3676b822737118cd6773a53b82db560405160405180910390a450505050565b6200046a3362000e28565b6000600160008473ffffffffffffffffffffffffffffffffffffffff1673ffffffffffffffffffffffffffffffffffffffff16815260200190815260200160002060008381526020019081526020016000209050600015158160030160009054906101000a900460ff161515036200050e576040517ffa60e3ec00000000000000000000000000000000000000000000000000000000815260040160405180910390fd5b80600201543410156200054d576040517f61d1288000000000000000000000000000000000000000000000000000000000815260040160405180910390fd5b60008160000160009054906101000a900473ffffffffffffffffffffffffffffffffffffffff169050600082600201549050600160008673ffffffffffffffffffffffffffffffffffffffff1673ffffffffffffffffffffffffffffffffffffffff1681526020019081526020016000206000858152602001908152602001600020600080820160006101000a81549073ffffffffffffffffffffffffffffffffffffffff0219169055600182016000905560028201600090556003820160006101000a81549060ff0219169055505060008273ffffffffffffffffffffffffffffffffffffffff168260405162000645906200163d565b60006040518083038185875af1925050503d806000811462000684576040519150601f19603f3d011682016040523d82523d6000602084013e62000689565b606091505b5050905080620006c5576040517fa05884ba00000000000000000000000000000000000000000000000000000000815260040160405180910390fd5b8573ffffffffffffffffffffffffffffffffffffffff166323b872dd3033886040518463ffffffff1660e01b8152600401620007049392919062001654565b600060405180830381600087803b1580156200071f57600080fd5b505af115801562000734573d6000803e3d6000fd5b50505050505050505050565b6200074a62000e92565b62000756600062000f22565b565b6000600160008473ffffffffffffffffffffffffffffffffffffffff1673ffffffffffffffffffffffffffffffffffffffff168152602001908152602001600020600083815260200190815260200160002090503373ffffffffffffffffffffffffffffffffffffffff168160000160009054906101000a900473ffffffffffffffffffffffffffffffffffffffff1673ffffffffffffffffffffffffffffffffffffffff161462000836576040517f94953b6000000000000000000000000000000000000000000000000000000000815260040160405180910390fd5b600160008473ffffffffffffffffffffffffffffffffffffffff1673ffffffffffffffffffffffffffffffffffffffff1681526020019081526020016000206000838152602001908152602001600020600080820160006101000a81549073ffffffffffffffffffffffffffffffffffffffff0219169055600182016000905560028201600090556003820160006101000a81549060ff021916905550503373ffffffffffffffffffffffffffffffffffffffff16828473ffffffffffffffffffffffffffffffffffffffff167f9eeb05bcd5d24277b1aedabfc1250e562193151b8766061859512bfb9a4277e260405160405180910390a4505050565b6200093f3362000e28565b6200094a8362000e28565b6000600160008573ffffffffffffffffffffffffffffffffffffffff1673ffffffffffffffffffffffffffffffffffffffff168152602001908152602001600020600084815260200190815260200160002090508060030160009054906101000a900460ff1615620009e8576040517f0853301a00000000000000000000000000000000000000000000000000000000815260040160405180910390fd5b8373ffffffffffffffffffffffffffffffffffffffff166323b872dd3330866040518463ffffffff1660e01b815260040162000a279392919062001654565b600060405180830381600087803b15801562000a4257600080fd5b505af115801562000a57573d6000803e3d6000fd5b50505050338160000160006101000a81548173ffffffffffffffffffffffffffffffffffffffff021916908373ffffffffffffffffffffffffffffffffffffffff16021790555081816002018190555060018160030160006101000a81548160ff0219169083151502179055503373ffffffffffffffffffffffffffffffffffffffff16838573ffffffffffffffffffffffffffffffffffffffff167f0da0d01d087eaed24fcd28147c0a5eb7082b3358112e05978ce6023abd5c8cfe60405160405180910390a450505050565b62000b2f62000fee565b600160008473ffffffffffffffffffffffffffffffffffffffff1673ffffffffffffffffffffffffffffffffffffffff16815260200190815260200160002060008381526020019081526020016000206040518060800160405290816000820160009054906101000a900473ffffffffffffffffffffffffffffffffffffffff1673ffffffffffffffffffffffffffffffffffffffff1673ffffffffffffffffffffffffffffffffffffffff16815260200160018201548152602001600282015481526020016003820160009054906101000a900460ff161515151581525050905092915050565b60008060009054906101000a900473ffffffffffffffffffffffffffffffffffffffff16905090565b60008062000c4e8962000e28565b60008989898989898960405162000c65906200102e565b62000c7797969594939291906200172b565b604051809103906000f08015801562000c94573d6000803e3d6000fd5b50905060035491508092508060026000600354815260200190815260200160002060006101000a81548173ffffffffffffffffffffffffffffffffffffffff021916908373ffffffffffffffffffffffffffffffffffffffff1602179055506003600081548092919062000d0890620017ec565b9190505550818373ffffffffffffffffffffffffffffffffffffffff167f5a4a2845586f766628d6f3d35e1a786f7ce5362daf8bdeb28c081e0bb11e5e6860405160405180910390a35097509795505050505050565b60006002600083815260200190815260200160002060009054906101000a900473ffffffffffffffffffffffffffffffffffffffff169050919050565b62000da562000e92565b600073ffffffffffffffffffffffffffffffffffffffff168173ffffffffffffffffffffffffffffffffffffffff160362000e1a5760006040517f1e4fbdf700000000000000000000000000000000000000000000000000000000815260040162000e1191906200128f565b60405180910390fd5b62000e258162000f22565b50565b600073ffffffffffffffffffffffffffffffffffffffff168173ffffffffffffffffffffffffffffffffffffffff160362000e8f576040517f1d2ad18400000000000000000000000000000000000000000000000000000000815260040160405180910390fd5b50565b62000e9c62000fe6565b73ffffffffffffffffffffffffffffffffffffffff1662000ebc62000c17565b73ffffffffffffffffffffffffffffffffffffffff161462000f205762000ee262000fe6565b6040517f118cdaa700000000000000000000000000000000000000000000000000000000815260040162000f1791906200128f565b60405180910390fd5b565b60008060009054906101000a900473ffffffffffffffffffffffffffffffffffffffff169050816000806101000a81548173ffffffffffffffffffffffffffffffffffffffff021916908373ffffffffffffffffffffffffffffffffffffffff1602179055508173ffffffffffffffffffffffffffffffffffffffff168173ffffffffffffffffffffffffffffffffffffffff167f8be0079c531659141344cd1fd0a4f28419497f9722a3daafe3b4186f6b6457e060405160405180910390a35050565b600033905090565b6040518060800160405280600073ffffffffffffffffffffffffffffffffffffffff16815260200160008152602001600081526020016000151581525090565b61367c806200183a83390190565b6000604051905090565b600080fd5b600080fd5b6000819050919050565b620010658162001050565b81146200107157600080fd5b50565b60008135905062001085816200105a565b92915050565b600060208284031215620010a457620010a362001046565b5b6000620010b48482850162001074565b91505092915050565b600073ffffffffffffffffffffffffffffffffffffffff82169050919050565b6000620010ea82620010bd565b9050919050565b620010fc81620010dd565b81146200110857600080fd5b50565b6000813590506200111c81620010f1565b92915050565b600080604083850312156200113c576200113b62001046565b5b60006200114c858286016200110b565b92505060206200115f8582860162001074565b9150509250929050565b60008060006060848603121562001185576200118462001046565b5b600062001195868287016200110b565b9350506020620011a88682870162001074565b9250506040620011bb8682870162001074565b9150509250925092565b620011d081620010dd565b82525050565b620011e18162001050565b82525050565b60008115159050919050565b620011fe81620011e7565b82525050565b6080820160008201516200121c6000850182620011c5565b506020820151620012316020850182620011d6565b506040820151620012466040850182620011d6565b5060608201516200125b6060850182620011f3565b50505050565b600060808201905062001278600083018462001204565b92915050565b6200128981620010dd565b82525050565b6000602082019050620012a660008301846200127e565b92915050565b600080fd5b600080fd5b6000601f19601f8301169050919050565b7f4e487b7100000000000000000000000000000000000000000000000000000000600052604160045260246000fd5b6200130182620012b6565b810181811067ffffffffffffffff82111715620013235762001322620012c7565b5b80604052505050565b6000620013386200103c565b9050620013468282620012f6565b919050565b600067ffffffffffffffff821115620013695762001368620012c7565b5b6200137482620012b6565b9050602081019050919050565b82818337600083830152505050565b6000620013a7620013a1846200134b565b6200132c565b905082815260208101848484011115620013c657620013c5620012b1565b5b620013d384828562001381565b509392505050565b600082601f830112620013f357620013f2620012ac565b5b81356200140584826020860162001390565b91505092915050565b6200141981620011e7565b81146200142557600080fd5b50565b60008135905062001439816200140e565b92915050565b600080600080600080600060e0888a03121562001461576200146062001046565b5b6000620014718a828b016200110b565b975050602088013567ffffffffffffffff8111156200149557620014946200104b565b5b620014a38a828b01620013db565b965050604088013567ffffffffffffffff811115620014c757620014c66200104b565b5b620014d58a828b01620013db565b955050606088013567ffffffffffffffff811115620014f957620014f86200104b565b5b620015078a828b01620013db565b94505060806200151a8a828b0162001428565b93505060a06200152d8a828b0162001074565b92505060c0620015408a828b0162001074565b91505092959891949750929550565b6200155a8162001050565b82525050565b60006040820190506200157760008301856200127e565b6200158660208301846200154f565b9392505050565b600060208284031215620015a657620015a562001046565b5b6000620015b6848285016200110b565b91505092915050565b600081519050620015d0816200105a565b92915050565b600060208284031215620015ef57620015ee62001046565b5b6000620015ff84828501620015bf565b91505092915050565b600081905092915050565b50565b60006200162560008362001608565b9150620016328262001613565b600082019050919050565b60006200164a8262001616565b9150819050919050565b60006060820190506200166b60008301866200127e565b6200167a60208301856200127e565b6200168960408301846200154f565b949350505050565b600081519050919050565b600082825260208201905092915050565b60005b83811015620016cd578082015181840152602081019050620016b0565b60008484015250505050565b6000620016e68262001691565b620016f281856200169c565b935062001704818560208601620016ad565b6200170f81620012b6565b840191505092915050565b6200172581620011e7565b82525050565b600060e08201905062001742600083018a6200127e565b8181036020830152620017568189620016d9565b905081810360408301526200176c8188620016d9565b90508181036060830152620017828187620016d9565b90506200179360808301866200171a565b620017a260a08301856200154f565b620017b160c08301846200154f565b98975050505050505050565b7f4e487b7100000000000000000000000000000000000000000000000000000000600052601160045260246000fd5b6000620017f98262001050565b91507fffffffffffffffffffffffffffffffffffffffffffffffffffffffffffffffff82036200182e576200182d620017bd565b5b60018201905091905056fe60806040523480156200001157600080fd5b506040516200367c3803806200367c833981810160405281019062000037919062000474565b86868681600090816200004b9190620007c5565b5080600190816200005d9190620007c5565b505050600073ffffffffffffffffffffffffffffffffffffffff168173ffffffffffffffffffffffffffffffffffffffff1603620000d55760006040517f1e4fbdf7000000000000000000000000000000000000000000000000000000008152600401620000cc9190620008bd565b60405180910390fd5b620000e6816200013e60201b60201c565b50600160088190555083600b9081620001009190620007c5565b5082600a60006101000a81548160ff02191690831515021790555082156200012a57816009819055505b80600c8190555050505050505050620008da565b6000600760009054906101000a900473ffffffffffffffffffffffffffffffffffffffff16905081600760006101000a81548173ffffffffffffffffffffffffffffffffffffffff021916908373ffffffffffffffffffffffffffffffffffffffff1602179055508173ffffffffffffffffffffffffffffffffffffffff168173ffffffffffffffffffffffffffffffffffffffff167f8be0079c531659141344cd1fd0a4f28419497f9722a3daafe3b4186f6b6457e060405160405180910390a35050565b6000604051905090565b600080fd5b600080fd5b600073ffffffffffffffffffffffffffffffffffffffff82169050919050565b6000620002458262000218565b9050919050565b620002578162000238565b81146200026357600080fd5b50565b60008151905062000277816200024c565b92915050565b600080fd5b600080fd5b6000601f19601f8301169050919050565b7f4e487b7100000000000000000000000000000000000000000000000000000000600052604160045260246000fd5b620002d28262000287565b810181811067ffffffffffffffff82111715620002f457620002f362000298565b5b80604052505050565b60006200030962000204565b9050620003178282620002c7565b919050565b600067ffffffffffffffff8211156200033a576200033962000298565b5b620003458262000287565b9050602081019050919050565b60005b838110156200037257808201518184015260208101905062000355565b60008484015250505050565b6000620003956200038f846200031c565b620002fd565b905082815260208101848484011115620003b457620003b362000282565b5b620003c184828562000352565b509392505050565b600082601f830112620003e157620003e06200027d565b5b8151620003f38482602086016200037e565b91505092915050565b60008115159050919050565b6200041381620003fc565b81146200041f57600080fd5b50565b600081519050620004338162000408565b92915050565b6000819050919050565b6200044e8162000439565b81146200045a57600080fd5b50565b6000815190506200046e8162000443565b92915050565b600080600080600080600060e0888a0312156200049657620004956200020e565b5b6000620004a68a828b0162000266565b975050602088015167ffffffffffffffff811115620004ca57620004c962000213565b5b620004d88a828b01620003c9565b965050604088015167ffffffffffffffff811115620004fc57620004fb62000213565b5b6200050a8a828b01620003c9565b955050606088015167ffffffffffffffff8111156200052e576200052d62000213565b5b6200053c8a828b01620003c9565b94505060806200054f8a828b0162000422565b93505060a0620005628a828b016200045d565b92505060c0620005758a828b016200045d565b91505092959891949750929550565b600081519050919050565b7f4e487b7100000000000000000000000000000000000000000000000000000000600052602260045260246000fd5b60006002820490506001821680620005d757607f821691505b602082108103620005ed57620005ec6200058f565b5b50919050565b60008190508160005260206000209050919050565b60006020601f8301049050919050565b600082821b905092915050565b600060088302620006577fffffffffffffffffffffffffffffffffffffffffffffffffffffffffffffffff8262000618565b62000663868362000618565b95508019841693508086168417925050509392505050565b6000819050919050565b6000620006a6620006a06200069a8462000439565b6200067b565b62000439565b9050919050565b6000819050919050565b620006c28362000685565b620006da620006d182620006ad565b84845462000625565b825550505050565b600090565b620006f1620006e2565b620006fe818484620006b7565b505050565b5b8181101562000726576200071a600082620006e7565b60018101905062000704565b5050565b601f82111562000775576200073f81620005f3565b6200074a8462000608565b810160208510156200075a578190505b62000772620007698562000608565b83018262000703565b50505b505050565b600082821c905092915050565b60006200079a600019846008026200077a565b1980831691505092915050565b6000620007b5838362000787565b9150826002028217905092915050565b620007d08262000584565b67ffffffffffffffff811115620007ec57620007eb62000298565b5b620007f88254620005be565b620008058282856200072a565b600060209050601f8311600181146200083d576000841562000828578287015190505b620008348582620007a7565b865550620008a4565b601f1984166200084d86620005f3565b60005b82811015620008775784890151825560018201915060208501945060208101905062000850565b8683101562000897578489015162000893601f89168262000787565b8355505b6001600288020188555050505b505050505050565b620008b78162000238565b82525050565b6000602082019050620008d46000830184620008ac565b92915050565b612d9280620008ea6000396000f3fe6080604052600436106101815760003560e01c806370a08231116100d1578063a7f93ebd1161008a578063c87b56dd11610064578063c87b56dd1461054b578063e985e9c514610588578063f2fde38b146105c5578063f4a0a528146105ee57610181565b8063a7f93ebd146104cc578063b88d4fde146104f7578063c1f3342a1461052057610181565b806370a08231146103d0578063715018a61461040d5780638da5cb5b1461042457806395d89b411461044f578063a0bcfc7f1461047a578063a22cb465146104a357610181565b80633c03b2f31161013e57806342842e0e1161011857806342842e0e146103165780634c0f38c21461033f5780636352211e1461036a5780636f8b44b0146103a757610181565b80633c03b2f3146102a65780633ccfd60b146102cf57806340d097c3146102e657610181565b806301ffc9a71461018657806306fdde03146101c3578063081812fc146101ee578063095ea7b31461022b578063162094c41461025457806323b872dd1461027d575b600080fd5b34801561019257600080fd5b506101ad60048036038101906101a891906120fa565b610617565b6040516101ba9190612142565b60405180910390f35b3480156101cf57600080fd5b506101d8610629565b6040516101e591906121ed565b60405180910390f35b3480156101fa57600080fd5b5061021560048036038101906102109190612245565b6106bb565b60405161022291906122b3565b60405180910390f35b34801561023757600080fd5b50610252600480360381019061024d91906122fa565b6106d7565b005b34801561026057600080fd5b5061027b6004803603810190610276919061246f565b6106ed565b005b34801561028957600080fd5b506102a4600480360381019061029f91906124cb565b610703565b005b3480156102b257600080fd5b506102cd60048036038101906102c8919061254a565b610805565b005b3480156102db57600080fd5b506102e461082a565b005b61030060048036038101906102fb9190612577565b6108df565b60405161030d91906125b3565b60405180910390f35b34801561032257600080fd5b5061033d600480360381019061033891906124cb565b610a1c565b005b34801561034b57600080fd5b50610354610a3c565b60405161036191906125b3565b60405180910390f35b34801561037657600080fd5b50610391600480360381019061038c9190612245565b610a46565b60405161039e91906122b3565b60405180910390f35b3480156103b357600080fd5b506103ce60048036038101906103c99190612245565b610a58565b005b3480156103dc57600080fd5b506103f760048036038101906103f29190612577565b610af9565b60405161040491906125b3565b60405180910390f35b34801561041957600080fd5b50610422610bb3565b005b34801561043057600080fd5b50610439610bc7565b60405161044691906122b3565b60405180910390f35b34801561045b57600080fd5b50610464610bf1565b60405161047191906121ed565b60405180910390f35b34801561048657600080fd5b506104a1600480360381019061049c91906125ce565b610c83565b005b3480156104af57600080fd5b506104ca60048036038101906104c59190612617565b610c9e565b005b3480156104d857600080fd5b506104e1610cb4565b6040516104ee91906125b3565b60405180910390f35b34801561050357600080fd5b5061051e600480360381019061051991906126f8565b610cbe565b005b34801561052c57600080fd5b50610535610cdb565b6040516105429190612142565b60405180910390f35b34801561055757600080fd5b50610572600480360381019061056d9190612245565b610cf2565b60405161057f91906121ed565b60405180910390f35b34801561059457600080fd5b506105af60048036038101906105aa919061277b565b610d04565b6040516105bc9190612142565b60405180910390f35b3480156105d157600080fd5b506105ec60048036038101906105e79190612577565b610d98565b005b3480156105fa57600080fd5b5061061560048036038101906106109190612245565b610e1e565b005b600061062282610e30565b9050919050565b606060008054610638906127ea565b80601f0160208091040260200160405190810160405280929190818152602001828054610664906127ea565b80156106b15780601f10610686576101008083540402835291602001916106b1565b820191906000526020600020905b81548152906001019060200180831161069457829003601f168201915b5050505050905090565b60006106c682610e91565b506106d082610f19565b9050919050565b6106e982826106e4610f56565b610f5e565b5050565b6106f5610f70565b6106ff8282610ff7565b5050565b600073ffffffffffffffffffffffffffffffffffffffff168273ffffffffffffffffffffffffffffffffffffffff16036107755760006040517f64a0ae9200000000000000000000000000000000000000000000000000000000815260040161076c91906122b3565b60405180910390fd5b60006107898383610784610f56565b611053565b90508373ffffffffffffffffffffffffffffffffffffffff168173ffffffffffffffffffffffffffffffffffffffff16146107ff578382826040517f64283d7b0000000000000000000000000000000000000000000000000000000081526004016107f69392919061281b565b60405180910390fd5b50505050565b61080d610f70565b80600a60006101000a81548160ff02191690831515021790555050565b610832610f70565b600061083c610bc7565b73ffffffffffffffffffffffffffffffffffffffff164760405161085f90612883565b60006040518083038185875af1925050503d806000811461089c576040519150601f19603f3d011682016040523d82523d6000602084013e6108a1565b606091505b50509050806108dc576040517f2b32964600000000000000000000000000000000000000000000000000000000815260040160405180910390fd5b50565b60008073ffffffffffffffffffffffffffffffffffffffff168273ffffffffffffffffffffffffffffffffffffffff1603610946576040517f281aac7100000000000000000000000000000000000000000000000000000000815260040160405180910390fd5b600c54341015610982576040517ffe60baf800000000000000000000000000000000000000000000000000000000815260040160405180910390fd5b600a60009054906101000a900460ff1680156109a15750600954600854115b156109d8576040517f3cb5434b00000000000000000000000000000000000000000000000000000000815260040160405180910390fd5b60085490506109e98260085461126d565b6109ff6008546109fa600854610cf2565b610ff7565b60086000815480929190610a12906128c7565b9190505550919050565b610a3783838360405180602001604052806000815250610cbe565b505050565b6000600954905090565b6000610a5182610e91565b9050919050565b610a60610f70565b600a60009054906101000a900460ff1615610aa7576040517f811ae76c00000000000000000000000000000000000000000000000000000000815260040160405180910390fd5b6001600854610ab6919061290f565b811015610aef576040517fc6a6aedb00000000000000000000000000000000000000000000000000000000815260040160405180910390fd5b8060098190555050565b60008073ffffffffffffffffffffffffffffffffffffffff168273ffffffffffffffffffffffffffffffffffffffff1603610b6c5760006040517f89c62b64000000000000000000000000000000000000000000000000000000008152600401610b6391906122b3565b60405180910390fd5b600360008373ffffffffffffffffffffffffffffffffffffffff1673ffffffffffffffffffffffffffffffffffffffff168152602001908152602001600020549050919050565b610bbb610f70565b610bc5600061128b565b565b6000600760009054906101000a900473ffffffffffffffffffffffffffffffffffffffff16905090565b606060018054610c00906127ea565b80601f0160208091040260200160405190810160405280929190818152602001828054610c2c906127ea565b8015610c795780601f10610c4e57610100808354040283529160200191610c79565b820191906000526020600020905b815481529060010190602001808311610c5c57829003601f168201915b5050505050905090565b610c8b610f70565b80600b9081610c9a9190612aef565b5050565b610cb0610ca9610f56565b8383611351565b5050565b6000600c54905090565b610cc9848484610703565b610cd5848484846114c0565b50505050565b6000600a60009054906101000a900460ff16905090565b6060610cfd82611677565b9050919050565b6000600560008473ffffffffffffffffffffffffffffffffffffffff1673ffffffffffffffffffffffffffffffffffffffff16815260200190815260200160002060008373ffffffffffffffffffffffffffffffffffffffff1673ffffffffffffffffffffffffffffffffffffffff16815260200190815260200160002060009054906101000a900460ff16905092915050565b610da0610f70565b600073ffffffffffffffffffffffffffffffffffffffff168173ffffffffffffffffffffffffffffffffffffffff1603610e125760006040517f1e4fbdf7000000000000000000000000000000000000000000000000000000008152600401610e0991906122b3565b60405180910390fd5b610e1b8161128b565b50565b610e26610f70565b80600c8190555050565b6000634906490660e01b7bffffffffffffffffffffffffffffffffffffffffffffffffffffffff1916827bffffffffffffffffffffffffffffffffffffffffffffffffffffffff19161480610e8a5750610e898261178a565b5b9050919050565b600080610e9d8361186c565b9050600073ffffffffffffffffffffffffffffffffffffffff168173ffffffffffffffffffffffffffffffffffffffff1603610f1057826040517f7e273289000000000000000000000000000000000000000000000000000000008152600401610f0791906125b3565b60405180910390fd5b80915050919050565b60006004600083815260200190815260200160002060009054906101000a900473ffffffffffffffffffffffffffffffffffffffff169050919050565b600033905090565b610f6b83838360016118a9565b505050565b610f78610f56565b73ffffffffffffffffffffffffffffffffffffffff16610f96610bc7565b73ffffffffffffffffffffffffffffffffffffffff1614610ff557610fb9610f56565b6040517f118cdaa7000000000000000000000000000000000000000000000000000000008152600401610fec91906122b3565b60405180910390fd5b565b806006600084815260200190815260200160002090816110179190612aef565b507ff8e1a15aba9398e019f0b49df1a4fde98ee17ae345cb5f6b5e2c27f5033e8ce78260405161104791906125b3565b60405180910390a15050565b60008061105f8461186c565b9050600073ffffffffffffffffffffffffffffffffffffffff168373ffffffffffffffffffffffffffffffffffffffff16146110a1576110a0818486611a6e565b5b600073ffffffffffffffffffffffffffffffffffffffff168173ffffffffffffffffffffffffffffffffffffffff1614611132576110e36000856000806118a9565b6001600360008373ffffffffffffffffffffffffffffffffffffffff1673ffffffffffffffffffffffffffffffffffffffff168152602001908152602001600020600082825403925050819055505b600073ffffffffffffffffffffffffffffffffffffffff168573ffffffffffffffffffffffffffffffffffffffff16146111b5576001600360008773ffffffffffffffffffffffffffffffffffffffff1673ffffffffffffffffffffffffffffffffffffffff168152602001908152602001600020600082825401925050819055505b846002600086815260200190815260200160002060006101000a81548173ffffffffffffffffffffffffffffffffffffffff021916908373ffffffffffffffffffffffffffffffffffffffff160217905550838573ffffffffffffffffffffffffffffffffffffffff168273ffffffffffffffffffffffffffffffffffffffff167fddf252ad1be2c89b69c2b068fc378daa952ba7f163c4a11628f55a4df523b3ef60405160405180910390a4809150509392505050565b611287828260405180602001604052806000815250611b32565b5050565b6000600760009054906101000a900473ffffffffffffffffffffffffffffffffffffffff16905081600760006101000a81548173ffffffffffffffffffffffffffffffffffffffff021916908373ffffffffffffffffffffffffffffffffffffffff1602179055508173ffffffffffffffffffffffffffffffffffffffff168173ffffffffffffffffffffffffffffffffffffffff167f8be0079c531659141344cd1fd0a4f28419497f9722a3daafe3b4186f6b6457e060405160405180910390a35050565b600073ffffffffffffffffffffffffffffffffffffffff168273ffffffffffffffffffffffffffffffffffffffff16036113c257816040517f5b08ba180000000000000000000000000000000000000000000000000000000081526004016113b991906122b3565b60405180910390fd5b80600560008573ffffffffffffffffffffffffffffffffffffffff1673ffffffffffffffffffffffffffffffffffffffff16815260200190815260200160002060008473ffffffffffffffffffffffffffffffffffffffff1673ffffffffffffffffffffffffffffffffffffffff16815260200190815260200160002060006101000a81548160ff0219169083151502179055508173ffffffffffffffffffffffffffffffffffffffff168373ffffffffffffffffffffffffffffffffffffffff167f17307eab39ab6107e8899845ad3d59bd9653f200f220920489ca2b5937696c31836040516114b39190612142565b60405180910390a3505050565b60008373ffffffffffffffffffffffffffffffffffffffff163b1115611671578273ffffffffffffffffffffffffffffffffffffffff1663150b7a02611504610f56565b8685856040518563ffffffff1660e01b81526004016115269493929190612c16565b6020604051808303816000875af192505050801561156257506040513d601f19601f8201168201806040525081019061155f9190612c77565b60015b6115e6573d8060008114611592576040519150601f19603f3d011682016040523d82523d6000602084013e611597565b606091505b5060008151036115de57836040517f64a0ae920000000000000000000000000000000000000000000000000000000081526004016115d591906122b3565b60405180910390fd5b805181602001fd5b63150b7a0260e01b7bffffffffffffffffffffffffffffffffffffffffffffffffffffffff1916817bffffffffffffffffffffffffffffffffffffffffffffffffffffffff19161461166f57836040517f64a0ae9200000000000000000000000000000000000000000000000000000000815260040161166691906122b3565b60405180910390fd5b505b50505050565b606061168282610e91565b5060006006600084815260200190815260200160002080546116a3906127ea565b80601f01602080910402602001604051908101604052809291908181526020018280546116cf906127ea565b801561171c5780601f106116f15761010080835404028352916020019161171c565b820191906000526020600020905b8154815290600101906020018083116116ff57829003601f168201915b50505050509050600061172d611b4e565b90506000815103611742578192505050611785565b60008251111561177757808260405160200161175f929190612ce0565b60405160208183030381529060405292505050611785565b61178084611be0565b925050505b919050565b60007f80ac58cd000000000000000000000000000000000000000000000000000000007bffffffffffffffffffffffffffffffffffffffffffffffffffffffff1916827bffffffffffffffffffffffffffffffffffffffffffffffffffffffff1916148061185557507f5b5e139f000000000000000000000000000000000000000000000000000000007bffffffffffffffffffffffffffffffffffffffffffffffffffffffff1916827bffffffffffffffffffffffffffffffffffffffffffffffffffffffff1916145b80611865575061186482611c49565b5b9050919050565b60006002600083815260200190815260200160002060009054906101000a900473ffffffffffffffffffffffffffffffffffffffff169050919050565b80806118e25750600073ffffffffffffffffffffffffffffffffffffffff168273ffffffffffffffffffffffffffffffffffffffff1614155b15611a165760006118f284610e91565b9050600073ffffffffffffffffffffffffffffffffffffffff168373ffffffffffffffffffffffffffffffffffffffff161415801561195d57508273ffffffffffffffffffffffffffffffffffffffff168173ffffffffffffffffffffffffffffffffffffffff1614155b8015611970575061196e8184610d04565b155b156119b257826040517fa9fbf51f0000000000000000000000000000000000000000000000000000000081526004016119a991906122b3565b60405180910390fd5b8115611a1457838573ffffffffffffffffffffffffffffffffffffffff168273ffffffffffffffffffffffffffffffffffffffff167f8c5be1e5ebec7d5bd14f71427d1e84f3dd0314c0f7b2291e5b200ac8c7c3b92560405160405180910390a45b505b836004600085815260200190815260200160002060006101000a81548173ffffffffffffffffffffffffffffffffffffffff021916908373ffffffffffffffffffffffffffffffffffffffff16021790555050505050565b611a79838383611cb3565b611b2d57600073ffffffffffffffffffffffffffffffffffffffff168373ffffffffffffffffffffffffffffffffffffffff1603611aee57806040517f7e273289000000000000000000000000000000000000000000000000000000008152600401611ae591906125b3565b60405180910390fd5b81816040517f177e802f000000000000000000000000000000000000000000000000000000008152600401611b24929190612d04565b60405180910390fd5b505050565b611b3c8383611d74565b611b4960008484846114c0565b505050565b6060600b8054611b5d906127ea565b80601f0160208091040260200160405190810160405280929190818152602001828054611b89906127ea565b8015611bd65780601f10611bab57610100808354040283529160200191611bd6565b820191906000526020600020905b815481529060010190602001808311611bb957829003601f168201915b5050505050905090565b6060611beb82610e91565b506000611bf6611b4e565b90506000815111611c165760405180602001604052806000815250611c41565b80611c2084611e6d565b604051602001611c31929190612ce0565b6040516020818303038152906040525b915050919050565b60007f01ffc9a7000000000000000000000000000000000000000000000000000000007bffffffffffffffffffffffffffffffffffffffffffffffffffffffff1916827bffffffffffffffffffffffffffffffffffffffffffffffffffffffff1916149050919050565b60008073ffffffffffffffffffffffffffffffffffffffff168373ffffffffffffffffffffffffffffffffffffffff1614158015611d6b57508273ffffffffffffffffffffffffffffffffffffffff168473ffffffffffffffffffffffffffffffffffffffff161480611d2c5750611d2b8484610d04565b5b80611d6a57508273ffffffffffffffffffffffffffffffffffffffff16611d5283610f19565b73ffffffffffffffffffffffffffffffffffffffff16145b5b90509392505050565b600073ffffffffffffffffffffffffffffffffffffffff168273ffffffffffffffffffffffffffffffffffffffff1603611de65760006040517f64a0ae92000000000000000000000000000000000000000000000000000000008152600401611ddd91906122b3565b60405180910390fd5b6000611df483836000611053565b9050600073ffffffffffffffffffffffffffffffffffffffff168173ffffffffffffffffffffffffffffffffffffffff1614611e685760006040517f73c6ac6e000000000000000000000000000000000000000000000000000000008152600401611e5f91906122b3565b60405180910390fd5b505050565b606060006001611e7c84611f3b565b01905060008167ffffffffffffffff811115611e9b57611e9a612344565b5b6040519080825280601f01601f191660200182016040528015611ecd5781602001600182028036833780820191505090505b509050600082602001820190505b600115611f30578080600190039150507f3031323334353637383961626364656600000000000000000000000000000000600a86061a8153600a8581611f2457611f23612d2d565b5b04945060008503611edb575b819350505050919050565b600080600090507a184f03e93ff9f4daa797ed6e38ed64bf6a1f0100000000000000008310611f99577a184f03e93ff9f4daa797ed6e38ed64bf6a1f0100000000000000008381611f8f57611f8e612d2d565b5b0492506040810190505b6d04ee2d6d415b85acef81000000008310611fd6576d04ee2d6d415b85acef81000000008381611fcc57611fcb612d2d565b5b0492506020810190505b662386f26fc10000831061200557662386f26fc100008381611ffb57611ffa612d2d565b5b0492506010810190505b6305f5e100831061202e576305f5e100838161202457612023612d2d565b5b0492506008810190505b612710831061205357612710838161204957612048612d2d565b5b0492506004810190505b60648310612076576064838161206c5761206b612d2d565b5b0492506002810190505b600a8310612085576001810190505b80915050919050565b6000604051905090565b600080fd5b600080fd5b60007fffffffff0000000000000000000000000000000000000000000000000000000082169050919050565b6120d7816120a2565b81146120e257600080fd5b50565b6000813590506120f4816120ce565b92915050565b6000602082840312156121105761210f612098565b5b600061211e848285016120e5565b91505092915050565b60008115159050919050565b61213c81612127565b82525050565b60006020820190506121576000830184612133565b92915050565b600081519050919050565b600082825260208201905092915050565b60005b8381101561219757808201518184015260208101905061217c565b60008484015250505050565b6000601f19601f8301169050919050565b60006121bf8261215d565b6121c98185612168565b93506121d9818560208601612179565b6121e2816121a3565b840191505092915050565b6000602082019050818103600083015261220781846121b4565b905092915050565b6000819050919050565b6122228161220f565b811461222d57600080fd5b50565b60008135905061223f81612219565b92915050565b60006020828403121561225b5761225a612098565b5b600061226984828501612230565b91505092915050565b600073ffffffffffffffffffffffffffffffffffffffff82169050919050565b600061229d82612272565b9050919050565b6122ad81612292565b82525050565b60006020820190506122c860008301846122a4565b92915050565b6122d781612292565b81146122e257600080fd5b50565b6000813590506122f4816122ce565b92915050565b6000806040838503121561231157612310612098565b5b600061231f858286016122e5565b925050602061233085828601612230565b9150509250929050565b600080fd5b600080fd5b7f4e487b7100000000000000000000000000000000000000000000000000000000600052604160045260246000fd5b61237c826121a3565b810181811067ffffffffffffffff8211171561239b5761239a612344565b5b80604052505050565b60006123ae61208e565b90506123ba8282612373565b919050565b600067ffffffffffffffff8211156123da576123d9612344565b5b6123e3826121a3565b9050602081019050919050565b82818337600083830152505050565b600061241261240d846123bf565b6123a4565b90508281526020810184848401111561242e5761242d61233f565b5b6124398482856123f0565b509392505050565b600082601f8301126124565761245561233a565b5b81356124668482602086016123ff565b91505092915050565b6000806040838503121561248657612485612098565b5b600061249485828601612230565b925050602083013567ffffffffffffffff8111156124b5576124b461209d565b5b6124c185828601612441565b9150509250929050565b6000806000606084860312156124e4576124e3612098565b5b60006124f2868287016122e5565b9350506020612503868287016122e5565b925050604061251486828701612230565b9150509250925092565b61252781612127565b811461253257600080fd5b50565b6000813590506125448161251e565b92915050565b6000602082840312156125605761255f612098565b5b600061256e84828501612535565b91505092915050565b60006020828403121561258d5761258c612098565b5b600061259b848285016122e5565b91505092915050565b6125ad8161220f565b82525050565b60006020820190506125c860008301846125a4565b92915050565b6000602082840312156125e4576125e3612098565b5b600082013567ffffffffffffffff8111156126025761260161209d565b5b61260e84828501612441565b91505092915050565b6000806040838503121561262e5761262d612098565b5b600061263c858286016122e5565b925050602061264d85828601612535565b9150509250929050565b600067ffffffffffffffff82111561267257612671612344565b5b61267b826121a3565b9050602081019050919050565b600061269b61269684612657565b6123a4565b9050828152602081018484840111156126b7576126b661233f565b5b6126c28482856123f0565b509392505050565b600082601f8301126126df576126de61233a565b5b81356126ef848260208601612688565b91505092915050565b6000806000806080858703121561271257612711612098565b5b6000612720878288016122e5565b9450506020612731878288016122e5565b935050604061274287828801612230565b925050606085013567ffffffffffffffff8111156127635761276261209d565b5b61276f878288016126ca565b91505092959194509250565b6000806040838503121561279257612791612098565b5b60006127a0858286016122e5565b92505060206127b1858286016122e5565b9150509250929050565b7f4e487b7100000000000000000000000000000000000000000000000000000000600052602260045260246000fd5b6000600282049050600182168061280257607f821691505b602082108103612815576128146127bb565b5b50919050565b600060608201905061283060008301866122a4565b61283d60208301856125a4565b61284a60408301846122a4565b949350505050565b600081905092915050565b50565b600061286d600083612852565b91506128788261285d565b600082019050919050565b600061288e82612860565b9150819050919050565b7f4e487b7100000000000000000000000000000000000000000000000000000000600052601160045260246000fd5b60006128d28261220f565b91507fffffffffffffffffffffffffffffffffffffffffffffffffffffffffffffffff820361290457612903612898565b5b600182019050919050565b600061291a8261220f565b91506129258361220f565b925082820390508181111561293d5761293c612898565b5b92915050565b60008190508160005260206000209050919050565b60006020601f8301049050919050565b600082821b905092915050565b6000600883026129a57fffffffffffffffffffffffffffffffffffffffffffffffffffffffffffffffff82612968565b6129af8683612968565b95508019841693508086168417925050509392505050565b6000819050919050565b60006129ec6129e76129e28461220f565b6129c7565b61220f565b9050919050565b6000819050919050565b612a06836129d1565b612a1a612a12826129f3565b848454612975565b825550505050565b600090565b612a2f612a22565b612a3a8184846129fd565b505050565b5b81811015612a5e57612a53600082612a27565b600181019050612a40565b5050565b601f821115612aa357612a7481612943565b612a7d84612958565b81016020851015612a8c578190505b612aa0612a9885612958565b830182612a3f565b50505b505050565b600082821c905092915050565b6000612ac660001984600802612aa8565b1980831691505092915050565b6000612adf8383612ab5565b9150826002028217905092915050565b612af88261215d565b67ffffffffffffffff811115612b1157612b10612344565b5b612b1b82546127ea565b612b26828285612a62565b600060209050601f831160018114612b595760008415612b47578287015190505b612b518582612ad3565b865550612bb9565b601f198416612b6786612943565b60005b82811015612b8f57848901518255600182019150602085019450602081019050612b6a565b86831015612bac5784890151612ba8601f891682612ab5565b8355505b6001600288020188555050505b505050505050565b600081519050919050565b600082825260208201905092915050565b6000612be882612bc1565b612bf28185612bcc565b9350612c02818560208601612179565b612c0b816121a3565b840191505092915050565b6000608082019050612c2b60008301876122a4565b612c3860208301866122a4565b612c4560408301856125a4565b8181036060830152612c578184612bdd565b905095945050505050565b600081519050612c71816120ce565b92915050565b600060208284031215612c8d57612c8c612098565b5b6000612c9b84828501612c62565b91505092915050565b600081905092915050565b6000612cba8261215d565b612cc48185612ca4565b9350612cd4818560208601612179565b80840191505092915050565b6000612cec8285612caf565b9150612cf88284612caf565b91508190509392505050565b6000604082019050612d1960008301856122a4565b612d2660208301846125a4565b9392505050565b7f4e487b7100000000000000000000000000000000000000000000000000000000600052601260045260246000fdfea26469706673582212208424f744876bad3121a7c4ece44051ff98a4acd6e984a0e6c51b6036ed3273ea64736f6c63430008180033a2646970667358221220d55381fcbf850d71cfdc8093c8925b28ff2abe8cbe6b8916480c2d1c14bd713364736f6c63430008180033",
  "linkReferences": {},
  "deployedLinkReferences": {}
}